:020000040800F2
:1000000000060020E1010008E3010008E301000808
:10001000E3010008E3010008E3010008E301000830
:10002000E3010008E3010008E3010008B12F000824
:10003000E3010008E3010008E3010008E301000810
:10004000E3010008E3010008E3010008E301000800
:10005000E3010008E30100085D3200088532000872
:10006000AD320008D5320008FD320008E301000877
:10007000E3010008E3010008E3010008E3010008D0
:10008000E3010008E3010008E3010008E3010008C0
:10009000E3010008E3010008E3010008253300083C
:1000A000E3010008E3010008E3010008E3010008A0
:1000B000E3010008E3010008E3010008E301000890
:1000C000E3010008E3010008E3010008E301000880
:1000D000E3010008E3010008E3010008E301000870
:1000E00089330008E3010008E3010008E301000888
:1000F000E3010008E3010008E3010008E301000850
:10010000E3010008E3010008F9330008E3010008F7
:10011000E3010008E3010008E3010008E30100082F
:10012000E3010008E3010008E3010008E30100081F
:10013000E3010008E3010008E3010008E30100080F
:10014000E3010008E3010008E30100085927000863
:10015000E3010008E3010008E3010008E3010008EF
:10016000E3010008E3010008E3010008E3010008DF
:10017000E3010008E3010008E3010008E3010008CF
:10018000E3010008E3010008E3010008E3010008BF
:10019000E3010008E3010008E3010008E3010008AF
:1001A000E3010008E3010008E3010008E30100089F
:1001B000E3010008E3010008E3010008E30100088F
:1001C000E3010008E3010008E3010008E30100087F
:1001D000E3010008E3010008E3010008E30100086F
:1001E00002E000F000F8FEE772B6374880F30888B6
:1001F000364880F3098836483649086040F20000E6
:10020000CCF200004EF63471CEF200010860BFF36C
:100210004F8FBFF36F8F40F20000C0F2F0004EF638
:100220008851CEF200010860BFF34F8FBFF36F8F8C
:100230004FF00000E1EE100A4EF63C71CEF20001E4
:100240000860062080F31488BFF36F8F01F04CFF25
:1002500002F04CFE4FF055301F491B4A91423CBF03
:1002600041F8040BFAE71D49184A91423CBF41F896
:10027000040BFAE71A491B4A1B4B9A423EBF51F83E
:10028000040B42F8040BF8E700201849184A914281
:100290003CBF41F8040BFAE701F02AFF02F07AFEB6
:1002A000144C154DAC4203DA54F8041B8847F9E7A7
:1002B00000F042F8114C124DAC4203DA54F8041B22
:1002C0008847F9E701F012BF000600200022002055
:1002D0000000000808ED00E00000002000060020FB
:1002E000C0370008002200204022002040220020C9
:1002F000602E0020E0010008E0010008E001000895
:10030000E00100082DE9F04F2DED108AC1F80CD066
:10031000C3689D46BDEC108ABDE8F08F002383F3CF
:1003200011882846A047002001F08EFAFEE701F070
:100330001DFA00DFFEE7000038B500F0BFFB01F05A
:10034000A3FE054601F0C6FE0446C8B90E4B9D4209
:1003500018D001339D4218BF044641F2883504BFCE
:1003600001240025002001F099FE0CB100F074F882
:1003700000F01CFD284600F0C3F800F06DF8F9E726
:100380000025EFE70546EDE7010007B008B500F0EE
:1003900067FBA0F120035842584108BD07B541F260
:1003A0001203022101A8ADF8043000F077FB03B07E
:1003B0005DF804FB38B5302383F3118817480368D0
:1003C0000BB101F00DFB164A144800234FF47A716B
:1003D00001F0FCFA002383F31188124C236813B157
:1003E0002368013B2360636813B16368013B63606A
:1003F0000D4D2B7833B963687BB9022000F036FCD1
:10040000322363602B78032B07D163682BB902205A
:1004100000F02CFC4FF47A73636038BD402200205A
:10042000B50300086023002058220020084B1870F4
:1004300003280CD8DFE800F008050208022000F0CD
:1004400005BC022000F0F0BB024B00225A6070474E
:100450005822002060230020244B254A10B51C465A
:100460001968013140D004339342F9D16268214BBD
:100470009A4239D9204B9B6803F1006303F580331E
:100480009A4231D2002000F033FB0220FFF7CEFF6A
:100490001A4B1A6C00221A64196E1A66196E596C7E
:1004A0005A64596E5A665A6E5A6942F080025A610D
:1004B0005A6922F080025A615A691A6942F0005260
:1004C0001A611A6922F000521A611B6972B64FF064
:1004D000E0233021C3F8084DD4E9003281F31188BC
:1004E0009D4683F30888104710BD00BF0000010837
:1004F00020000108FFFF0008002200200038024011
:100500002DE9F04F93B0AA4B00902022FF210AA8BA
:100510009D6800F0F5FBA74A1378A3B9A64801210E
:1005200003601170302383F3118803680BB101F06D
:1005300057FAA24AA04800234FF47A7101F046FA14
:10054000002383F31188009B13B19D4B009A1A601E
:100550009C4A009C1378032B1EBF00231370984AFB
:100560004FF0000A18BF5360D3465646D1460120CB
:1005700000F06CFB24B1924B1B68002B00F0118241
:10058000002000F06DFA0390039B002BF2DB0120AA
:1005900000F04AFB039B213B162BE8D801A252F83E
:1005A00023F000BF0106000829060008BD06000868
:1005B0006F0500086F0500086F0500084707000871
:1005C000170900083108000893080008BB08000854
:1005D000E10800086F050008F30800086F0500082F
:1005E00065090008A10600086F050008A9090008B0
:1005F0000D060008A10600086F0500089308000812
:100600000220FFF7C3FE002840F0F581009B022185
:10061000BAF1000F08BF1C4605A841F21233ADF82D
:10062000143000F03BFAA2E74FF47A7000F018FAA9
:10063000071EEBDB0220FFF7A9FE0028E6D0013FF2
:10064000052F00F2DA81DFE807F0030A0D101336F8
:1006500005230593042105A800F020FA17E054486B
:100660000421F9E758480421F6E758480421F3E744
:100670004FF01C08404600F03DFA08F104080590D0
:10068000042105A800F00AFAB8F12C0FF2D10120DC
:1006900000FA07F747EA0B0B5FFA8BFB4FF00009F4
:1006A00000F07AFB26B10BF00B030B2B08BF0024E4
:1006B000FFF774FE5BE746480421CDE7002EA5D086
:1006C0000BF00B030B2BA1D10220FFF75FFE0746B7
:1006D00000289BD0012000F00BFA0220FFF7A6FEB5
:1006E00000261FFA86F8404600F012FA044690B140
:1006F0000021404600F01CFA01360028F1D1BA462C
:10070000044641F21213022105A8ADF814303E460A
:1007100000F0C4F92BE70120FFF788FE2546244BA3
:100720009B68AB4207D9284600F0E4F9013040F05D
:1007300067810435F3E7234B00251D70204BBA4633
:100740005D603E46ACE7002E3FF460AF0BF00B035C
:100750000B2B7FF45BAF0220FFF768FE322000F026
:100760007FF9B0F10008FFF651AF18F003077FF4EE
:100770004DAF0F4A926808EB050393423FF646AF30
:10078000B8F5807F3FF742AF124B0193B84523DDA8
:100790004FF47A7000F064F90390039A002AFFF690
:1007A00035AF019B039A03F8012B0137EDE700BF3A
:1007B000002200205C23002040220020B503000816
:1007C000602300205822002004220020082200205C
:1007D0000C2200205C220020C820FFF7D7FD07462E
:1007E00000283FF413AF1F2D11D8C5F12002424558
:1007F0000AAB25F0030028BF424683490192184402
:1008000000F058FA019A8048FF2100F079FA4FEA87
:10081000A8037D490193C8F38702284600F078FABF
:10082000064600283FF46DAF019B05EB830537E7D3
:100830000220FFF7ABFD00283FF4E8AE00F0A4F97A
:1008400000283FF4E3AE0027B846704B9B68BB42DC
:1008500018D91F2F11D80A9B01330ED027F003039C
:1008600012AA134453F8203C05934046042205A9DC
:1008700000F0C6FA04378046E7E7384600F03AF958
:100880000590F2E7CDF81480042105A800F006F9E0
:1008900006E70023642104A8049300F0F5F800287B
:1008A0007FF4B4AE0220FFF771FD00283FF4AEAE36
:1008B000049800F051F90590E6E70023642104A8AC
:1008C000049300F0E1F800287FF4A0AE0220FFF7C7
:1008D0005DFD00283FF49AAE049800F04DF9EAE778
:1008E0000220FFF753FD00283FF490AE00F05CF9C2
:1008F000E1E70220FFF74AFD00283FF487AE05A993
:10090000142000F057F904210746049004A800F0D1
:10091000C5F83946B9E7322000F0A2F8071EFFF605
:1009200075AEBB077FF472AE384A926807EB0903D5
:1009300093423FF66BAE0220FFF728FD00283FF4FC
:1009400065AE27F003074F44B9453FF4A9AE4846CA
:1009500000F0D0F80421059005A800F09FF809F1F7
:100960000409F1E74FF47A70FFF710FD00283FF417
:100970004DAE00F009F9002844D00A9B01330BD09A
:1009800008220AA9002000F0C3F900283AD020224A
:10099000FF210AA800F0B4F9FFF700FD1C4800F0A1
:1009A00059FF13B0BDE8F08F002E3FF42FAE0BF0CF
:1009B0000B030B2B7FF42AAE0023642105A80593BB
:1009C00000F062F8074600287FF420AE0220FFF70F
:1009D000DDFC804600283FF419AEFFF7DFFC41F252
:1009E000883000F037FF059800F008FA464600F01E
:1009F000D3F93C46BBE5064652E64FF0000905E652
:100A0000BA467EE637467CE65C22002000220020C3
:100A1000A086010070B50F4B1B780133DBB2012BB0
:100A20000C4611D80C4D29684FF47A730E6AA2FB5C
:100A30000332014622462846B047844204D1074B80
:100A400000221A70012070BD4FF4FA7000F002FF0E
:100A50000020F8E710220020082600209423002020
:100A600007B50023024601210DF107008DF807307C
:100A7000FFF7D0FF20B19DF8070003B05DF804FB3D
:100A80004FF0FF30F9E700000A4608B50421FFF7F0
:100A9000C1FF80F00100C0B2404208BD30B4054C37
:100AA0002368DD69044B0A46AC460146204630BC4B
:100AB000604700BF08260020A086010070B501F045
:100AC000E9F9094E094D30800024286833888342B3
:100AD00008D901F0D9F92B6804440133B4F5803FFB
:100AE0002B60F2D370BD00BF962300206823002046
:100AF00001F07EBA00F1006000F5803000687047B8
:100B000000F10060920000F5803001F009BA0000A9
:100B1000054B1A68054B1B889B1A834202D9104467
:100B200001F0B2B90020704768230020962300200E
:100B300038B5084D044629B128682044BDE838403E
:100B400001F0C2B92868204401F0A6F90028F3D0CA
:100B500038BD00BF6823002010F003030AD1B0F5B0
:100B6000047F05D200F10050A0F51040D0F8003805
:100B7000184670470023FBE700F10050A0F5104035
:100B8000D0F8100A70470000064991F8243033B1BC
:100B90000023086A81F824300822FFF7B1BF012042
:100BA000704700BF6C230020014B1868704700BFDE
:100BB000002004E070B5194B1D68194B0138C5F3CE
:100BC0000B0408442D0C04221E88A6420BD15C683D
:100BD0000A46013C824213460FD214F9016F4EB10E
:100BE00002F8016BF6E7013A03F10803ECD1814208
:100BF0000B4602D22C2203F8012B0A4A0524168840
:100C0000AE4204D1984284BF967803F8016B013C50
:100C100002F10402F3D1581A70BD00BF002004E0B5
:100C2000DC340008C8340008022804D1054B4FF416
:100C300080229A6170470128FCD1034B4FF4803227
:100C4000F7E700BF000C024000080240022803D171
:100C5000044B04229A617047012804BF024B98613B
:100C6000704700BF000C024000080240022805D176
:100C7000064A536983F00403536170470128FCD18D
:100C8000034A536983F00103F6E700BF000C0240FA
:100C90000008024070B504464FF47A764CB1412CFE
:100CA000254628BF412506FB05F000F0D3FD641B57
:100CB000F4E770BD10B50023934203D0CC5CC4545C
:100CC0000133F9E710BD000010B5013810F9013FFC
:100CD0003BB191F900409C4203D11AB10131013A74
:100CE000F4E71AB191F90020981A10BD1046FCE7FC
:100CF00003460246D01A12F9011B0029FAD17047A7
:100D000002440346934202D003F8011BFAE77047FE
:100D10002DE9F8431F4D144695F8242007468846D0
:100D200052BBDFF870909CB395F824302BB9202289
:100D3000FF2148462F62FFF7E3FF95F82400C0F13A
:100D40000802A24228BF2246D6B24146920005EBD5
:100D50008000FFF7AFFF95F82430A41B1E44F6B2C5
:100D6000082E17449044E4B285F82460DBD1FFF7E5
:100D70000BFF0028D7D108E02B6A03EB82038342E4
:100D8000CFD0FFF701FF0028CBD10020BDE8F883CA
:100D90000120FBE76C230020024B1A78024B1A70EB
:100DA000704700BF942300201022002010B5104C83
:100DB000104800F0B5F821460E4800F0DDF8246830
:100DC000626DD2F8043843F00203C2F804384FF4DD
:100DD0007A70FFF75FFF0849204600F0D3F9626D93
:100DE000D2F8043823F00203C2F8043810BD00BF63
:100DF000A835000808260020B0350008704700001C
:100E000030B5094D0A4491420DD011F8013B5840CC
:100E1000082340F30004013B2C4013F0FF0384EA55
:100E20005000F6D1EFE730BD2083B8ED026843688B
:100E30001143016003B118477047000013B5446BBC
:100E4000D4F894341A681178042915D1217C022928
:100E500012D11979128901238B4013420CD101A9B7
:100E600004F14C0001F0F8FED4F89444019B217980
:100E70000246206800F0D0F902B010BD143001F035
:100E80007BBE00004FF0FF33143001F075BE000050
:100E90004C3001F04DBF00004FF0FF334C3001F0FB
:100EA00047BF0000143001F049BE00004FF0FF3191
:100EB000143001F043BE00004C3001F019BF0000B7
:100EC0004FF0FF324C3001F013BF0000002070479C
:100ED00010B5D0F894341A6811780429044617D153
:100EE000017C022914D15979528901238B40134284
:100EF0000ED1143001F0DCFD024648B1D4F8944420
:100F00004FF4807361792068BDE8104000F072B939
:100F100010BD0000406BFFF7DBBF00007047000012
:100F20007FB5124B036000234360C0E90233012503
:100F300002260F4B057404460290019300F18402CF
:100F4000294600964FF48073143001F08DFD094B53
:100F50000294CDE9006304F523724FF480732946AF
:100F600004F14C0001F054FE04B070BDFC340008E4
:100F7000150F00083D0E00080B68302282F311881F
:100F80000A7903EB820290614A79093243F8220020
:100F90008A7912B103EB820398610223C0F894149A
:100FA0000374002080F311887047000038B5037F78
:100FB000044613B190F85430ABB9201D012502212D
:100FC000FFF734FF04F1140025776FF0010100F002
:100FD00069FC84F8545004F14C006FF00101BDE845
:100FE000384000F05FBC38BD10B501210446043024
:100FF000FFF71CFF0023237784F8543010BD000056
:1010000038B504460025143001F046FD04F14C00CB
:10101000257701F015FE201D84F854500121FFF7BB
:1010200005FF2046BDE83840FFF752BF90F8443036
:1010300003F06003202B07D190F84520212A4FF0C0
:10104000000303D81F2A06D800207047222AFBD1AC
:10105000C0E90E3303E0034A82630722C2630364DC
:10106000012070471122002037B5D0F894341A6857
:101070001178042904461AD1017C022917D1197963
:10108000128901238B40134211D100F14C052846EF
:1010900001F096FE58B101A9284601F0DDFDD4F813
:1010A0009444019B21790246206800F0B5F803B012
:1010B00030BD0000F0B500EB810385B09E690446A9
:1010C0000D46FEB1302383F3118804EB8507301DF4
:1010D0000821FFF7ABFEFB685B691B6806F14C005B
:1010E0001BB1019001F0C6FD019803A901F0B4FD08
:1010F000024648B1039B2946204600F08DF80023A4
:1011000083F3118805B0F0BDFB685A691268002AA4
:10111000F5D01B8A013B1340F1D104F14402EAE708
:10112000093138B550F82140DCB1302383F3118800
:10113000D4F894241368527903EB8203DB689B692B
:101140005D6845B104216018FFF770FE294604F17F
:10115000140001F0B7FC2046FFF7BAFE002383F32A
:10116000118838BD7047000001F016B801230370E4
:101170000023C0E90133C36183620362C362436237
:101180000363704738B50446302383F31188002584
:10119000C0E90355C0E90555416001F00DF802238F
:1011A000237085F31188284638BD000070B500EB28
:1011B000810305465069DA600E46144618B11022C4
:1011C0000021FFF79DFDA06918B110220021FFF753
:1011D00097FD31462846BDE8704001F0B7B80000E1
:1011E000826802F0011282600022C0E9042282615A
:1011F00001F038B9F0B400EB81044789E4680125B7
:10120000A4698D403D43458123600023A260636053
:10121000F0BC01F053B90000F0B400EB8104078981
:10122000E468012564698D403D4305812360002306
:10123000A2606360F0BC01F0CDB9000070B502237C
:10124000002504460370C0E90255C0E90455C56491
:10125000856180F8345001F015F863681B6823B18C
:1012600029462046BDE87040184770BD0378052B1D
:1012700010B504460AD080F8503005230370436847
:101280001B680BB1042198470023A36010BD000028
:101290000178052906D190F85020436802701B6838
:1012A00003B118477047000070B590F83430044619
:1012B00013B1002380F8343004F14402204601F0D9
:1012C000F3F863689B68B3B994F8443013F0600591
:1012D00035D00021204601F093FB0021204601F08B
:1012E00085FB63681B6813B10621204698470623D7
:1012F00084F8343070BD204698470028E4D0B4F814
:101300004A30E26B9A4288BFE36394F94430E56B5C
:10131000002B4FF0300380F20381002D00F0F280AB
:10132000092284F8342083F311880021D4E90E23A4
:101330002046FFF771FF002383F31188DAE794F862
:10134000452003F07F0343EA022340F20232934236
:1013500000F0C58021D8B3F5807F48D00DD8012B8F
:101360003FD0022B00F09380002BB2D104F14C024D
:10137000A2630222E2632364C1E7B3F5817F00F038
:101380009B80B3F5407FA4D194F84630012BA0D1C7
:10139000B4F84C3043F0020332E0B3F5006F4DD0A7
:1013A00017D8B3F5A06F31D0A3F5C063012B90D847
:1013B000636894F846205E6894F84710B4F84830A3
:1013C0002046B047002884D04368A3630368E363E2
:1013D0001AE0B3F5106F36D040F6024293427FF424
:1013E00078AF5C4BA3630223E3630023C3E794F865
:1013F0004630012B7FF46DAFB4F84C3023F002037C
:10140000C4E90E55A4F84C30256478E7B4F84430AC
:10141000B3F5A06F0ED194F8463084F84E302046D4
:1014200000F088FF63681B6813B1012120469847CC
:10143000032323700023C4E90E339CE704F14F0318
:10144000A3630123C3E72378042B10D1302383F354
:1014500011882046FFF7C4FE85F3118803216368D5
:1014600084F84F5021701B680BB12046984794F8C0
:101470004630002BDED084F84F300423237063689D
:101480001B68002BD6D0022120469847D2E794F85B
:1014900048301D0603F00F0120460AD500F0F6FF84
:1014A000012804D002287FF414AF2B4B9AE72B4B72
:1014B00098E700F0DDFFF3E794F84630002B7FF467
:1014C00008AF94F8483013F00F01B3D01A06204645
:1014D00002D501F0A9FAADE701F09CFAAAE794F869
:1014E0004630002B7FF4F5AE94F8483013F00F012E
:1014F000A0D01B06204602D501F082FA9AE701F03F
:1015000075FA97E7142284F8342083F311882B4668
:101510002A4629462046FFF76DFE85F31188E9E645
:101520005DB1152284F8342083F311880021D4E9B9
:101530000E232046FFF75EFEFDE60B2284F83420E2
:1015400083F311882B462A4629462046FFF764FE7E
:10155000E3E700BF2C3500082435000828350008D3
:1015600038B590F834300446002B3ED0063BDAB252
:101570000F2A34D80F2B32D8DFE803F03731310887
:10158000223231313131313131313737C56BB0F839
:101590004A309D4214D2C3681B8AB5FBF3F203FBA9
:1015A00012556DB9302383F311882B462A462946FC
:1015B000FFF732FE85F311880A2384F834300EE0F9
:1015C000142384F83430302383F3118800231A461F
:1015D00019462046FFF70EFE002383F3118838BD1D
:1015E000036C03B198470023E7E70021204601F090
:1015F00007FA0021204601F0F9F963681B6813B16E
:101600000621204698470623D7E7000010B590F83A
:101610003430142B044629D017D8062B05D001D816
:101620001BB110BD093B022BFBD80021204601F065
:10163000E7F90021204601F0D9F963681B6813B16E
:10164000062120469847062319E0152BE9D10B23E4
:1016500080F83430302383F3118800231A4619466A
:10166000FFF7DAFD002383F31188DAE7C3689B698B
:101670005B68002BD5D1036C03B19847002384F835
:101680003430CEE700230375826803691B689968CC
:101690009142FBD25A680360426010605860704704
:1016A00000230375826803691B6899689142FBD81F
:1016B0005A680360426010605860704708B5084679
:1016C000302383F311880B7D032B05D0042B0DD021
:1016D0002BB983F3118808BD8B6900221A604FF083
:1016E000FF338361FFF7CEFF0023F2E7D1E9003239
:1016F00013605A60F3E70000FFF7C4BF054BD968D9
:101700000875186802681A60536001220275D86073
:10171000FEF7F8BD9823002030B50C4BDD684B1C5C
:1017200087B004460FD02B46094A684600F04EF9B0
:101730002046FFF7E3FF009B13B1684600F050F925
:10174000A86907B030BDFFF7D9FFF9E7982300205B
:10175000BD160008044B1A68DB6890689B689842C5
:1017600094BF00200120704798230020084B10B53B
:101770001C68D86822681A60536001222275DC60F8
:10178000FFF78EFF01462046BDE81040FEF7BABDC8
:101790009823002038B5074C074908480123002545
:1017A0002370656001F04AFB0223237085F31188E2
:1017B00038BD00BF002600203435000898230020E3
:1017C00000F044B9034A516853685B1A9842FBD849
:1017D000704700BF001000E08B60022308618B821D
:1017E000084670478368A3F1840243F8142C026909
:1017F00043F8442C426943F8402C094A43F8242C0E
:10180000C26843F8182C022203F80C2C002203F8BB
:101810000B2C044A43F8102CA3F12000704700BFA2
:101820001D0300089823002008B5FFF7DBFFBDE883
:101830000840FFF761BF0000024BDB6898610F2092
:10184000FFF75CBF98230020302383F31188FFF754
:10185000F3BF000008B50146302383F31188082048
:10186000FFF75AFF002383F3118808BD064BDB689E
:1018700039B1426818605A60136043600420FFF772
:101880004BBF4FF0FF307047982300200368984209
:1018900006D01A680260506099611846FFF72CBFA5
:1018A0007047000038B504460D462068844200D1D8
:1018B00038BD036823605C608561FFF71DFFF4E7B6
:1018C00010B503689C68A2420CD85C688A600B6003
:1018D0004C602160596099688A1A9A604FF0FF3312
:1018E000836010BD1B68121BECE700000A2938BF9B
:1018F0000A2170B504460D460A26601901F096FAD1
:1019000001F07EFA041BA54203D8751C2E4604463E
:10191000F3E70A2E04D9BDE87040012001F0CEBAE9
:1019200070BD0000F8B5144B0D46D96103F11001EC
:1019300041600A2A1969826038BF0A220160486042
:101940001861A818144601F061FA0A2701F058FA44
:10195000431BA342064606D37C1C281901F066FAF5
:1019600027463546F2E70A2F04D9BDE8F8400120A2
:1019700001F0A4BAF8BD00BF98230020F8B50646D0
:101980000D4601F03DFA0F4A134653F8107F9F426F
:1019900006D12A4601463046BDE8F840FFF7C2BFEF
:1019A000D169BB68441A2C1928BF2C46A34202D91E
:1019B0002946FFF79BFF224631460348BDE8F84021
:1019C000FFF77EBF98230020A823002010B4C0E9B1
:1019D000032300235DF8044B4361FFF7CFBF0000F2
:1019E00010B5194C236998420DD0D0E900328168B6
:1019F00013605A609A680A449A60002303604FF0AB
:101A0000FF33A36110BD2346026843F8102F5360D3
:101A10000022026022699A4203D1BDE8104001F021
:101A2000FFB9936881680B44936001F0E9F922697A
:101A3000E1699268441AA242E4D91144BDE8104019
:101A4000091AFFF753BF00BF982300202DE9F04784
:101A5000DFF8BC8008F110072C4ED8F8105001F0C8
:101A6000CFF9D8F81C40AA68031B9A423ED8144408
:101A7000D5E900324FF00009C8F81C4013605A60E5
:101A8000C5F80090D8F81030B34201D101F0C8F980
:101A900089F31188D5E9033128469847302383F329
:101AA00011886B69002BD8D001F0AAF96A69A0EB04
:101AB00004094A4582460DD2022001F0FFF90022B6
:101AC000D8F81030B34208D151462846BDE8F04757
:101AD000FFF728BF121A2244F2E712EB090938BFB8
:101AE0004A4629463846FFF7EBFEB5E7D8F81030EE
:101AF000B34208D01444211AC8F81C00A960BDE8FC
:101B0000F047FFF7F3BEBDE8F08700BFA823002031
:101B10009823002000207047FEE700007047000077
:101B20004FF0FF307047000002290CD0032904D089
:101B30000129074818BF00207047032A05D8054827
:101B400000EBC2007047044870470020704700BF98
:101B50000C36000820220020C035000870B59AB06D
:101B60000546084601A9144600F0C2F801A8FFF78F
:101B7000BFF8431C5B00C5E9003400222370032337
:101B80006370C6B201AB02341046D1B28E4204F18A
:101B9000020401D81AB070BD13F8011B04F8021C2E
:101BA00004F8010C0132F0E708B5302383F3118803
:101BB0000348FFF759FA002383F3118808BD00BFDB
:101BC0000826002090F8443003F01F02012A07D1B4
:101BD00090F845200B2A03D10023C0E90E3315E00D
:101BE00003F06003202B08D1B0F848302BB990F8EF
:101BF0004520212A03D81F2A04D8FFF717BA222A22
:101C0000EBD0FAE7034A82630722C2630364012030
:101C1000704700BF1822002007B5052917D8DFE854
:101C200001F0191603191920302383F31188104A83
:101C300001900121FFF7BAFA01980E4A0221FFF73D
:101C4000B5FA0D48FFF7DCF9002383F3118803B0E0
:101C50005DF804FB302383F311880748FFF7A6F9EA
:101C6000F2E7302383F311880348FFF7BDF9EBE770
:101C700060350008843500080826002038B50C4D72
:101C80000C4C0D492A4604F10800FFF767FF05F1E7
:101C9000CA0204F110000949FFF760FF05F5CA7296
:101CA00004F118000649BDE83840FFF757BF00BFF0
:101CB000D02A002020220020403500084A350008A4
:101CC0005535000870B5044608460D46FFF710F874
:101CD000C6B22046013403780BB9184670BD3246AF
:101CE0002946FEF7F1FF0028F3D10120F6E70000B6
:101CF0002DE9F04705460C46FEF7FAFF2B49C6B220
:101D00002846FFF7DFFF08B10636F6B22849284615
:101D1000FFF7D8FF08B11036F6B2632E0BD8DFF804
:101D20008C80DFF88C90234FDFF894A02E7846B992
:101D30002670BDE8F08729462046BDE8F04701F04F
:101D4000A5BB252E2ED1072241462846FEF7BCFF13
:101D500070B9194B224603F10C0153F8040B42F8F9
:101D6000040B8B42F9D11B78137007350D34DDE776
:101D7000082249462846FEF7A7FF98B90F4BA21C38
:101D8000197809090232C95D02F8041C13F8011B15
:101D900001F00F015345C95D02F8031CF0D118345E
:101DA0000835C3E704F8016B0135BFE72C3600089E
:101DB000553500084236000834360008107AFF1FF7
:101DC0001C7AFF1FBFF34F8F024AD368DB03FCD49A
:101DD000704700BF003C024008B5094B1B7873B93F
:101DE000FFF7F0FF074B1A69002ABFBF064A5A6087
:101DF00002F188325A601A6822F480621A6008BDC3
:101E00002E2D0020003C02402301674508B50B4BF6
:101E10001B7893B9FFF7D6FF094B1A6942F00042CD
:101E20001A611A6842F480521A601A6822F48052C9
:101E30001A601A6842F480621A6008BD2E2D0020D4
:101E4000003C02400B28F0B516D80C4C0C49237806
:101E50007BB90C4D0E460C234FF0006255F8047B05
:101E600046F8042B013B13F0FF033A44F6D101235B
:101E7000237051F82000F0BD0020FCE7602D002009
:101E8000302D002054360008014B53F820007047D5
:101E9000543600080C2070470B2810B5044601D9B1
:101EA000002010BDFFF7CEFF064B53F82430184436
:101EB000C21A0BB90120F4E712680132F0D1043BD9
:101EC000F6E700BF543600080B2810B5044621D8A9
:101ED000FFF778FFFFF780FF0F4AF323D360C300BB
:101EE000DBB243F4007343F002031361136943F45C
:101EF00080331361FFF766FFFFF7A4FF074B53F82A
:101F0000241000F0D9F8FFF781FF2046BDE810400B
:101F1000FFF7C2BF002010BD003C0240543600084D
:101F2000F8B512F00103144642D18218B2F1016FE4
:101F300057D82D4B1B6813F0010352D02B4DFFF7E0
:101F40004BFFF323EB60FFF73DFF40F20127032C2B
:101F500015D824F001046618244C401A40F20117E9
:101F6000B142236900EB010524D123F00103236171
:101F7000FFF74CFF0120F8BD043C0430E7E783077E
:101F8000E7D12B6923F440732B612B693B432B6111
:101F900051F8046B0660BFF34F8FFFF713FF036820
:101FA0009E42E9D02B6923F001032B61FFF72EFF3E
:101FB0000020E0E723F44073236123693B4323615E
:101FC0000B882B80BFF34F8FFFF7FCFE2D8831F875
:101FD000023BADB2AB42C3D0236923F001032361BE
:101FE000E4E71846C7E700BF00380240003C024063
:101FF000084908B50B7828B11BB9FFF7EDFE01239E
:102000000B7008BD002BFCD0BDE808400870FFF73E
:10201000FDBE00BF2E2D002010B50244064BD2B2EB
:10202000904200D110BD441C00B253F8200041F88A
:10203000040BE0B2F4E700BF502800400F4B30B56E
:102040001C6F240407D41C6F44F400741C671C6FBD
:1020500044F400441C670A4C236843F480732360F3
:102060000244084BD2B2904200D130BD441C00B2B1
:1020700051F8045B43F82050E0B2F4E70038024026
:10208000007000405028004007B5012201A900203F
:10209000FFF7C2FF019803B05DF804FB13B50446D7
:1020A000FFF7F2FFA04205D0012201A90020019410
:1020B000FFF7C4FF02B010BD70470000034B1A6861
:1020C0001AB9034AD2F874281A607047642D0020A8
:1020D0000030024008B5FFF7F1FF024B1868C0F36B
:1020E000407008BD642D002070470000FEE700002E
:1020F0000A4B0B480B4A90420BD30B4BDA1C121ABB
:10210000C11E22F003028B4238BF00220021FEF7DD
:10211000F7BD53F8041B40F8041BECE70038000837
:10212000602E0020602E0020602E002070B5D0E9C7
:1021300015439E6800224FF0FF3504EB4213510116
:10214000D3F800090028BEBFD3F8000940F0804052
:10215000C3F80009D3F8000B0028BEBFD3F8000B6A
:1021600040F08040C3F8000B013263189642C3F878
:102170000859C3F8085BE0D24FF00113C4F81C38CB
:1021800070BD0000890141F02001016103699B06D7
:10219000FCD41220FFF716BB10B5054C2046FEF705
:1021A000E5FF4FF0A0436365024BA36510BD00BF80
:1021B000682D0020A836000870B50378012B05466D
:1021C00050D12A4B446D98421BD1294B5A6B42F097
:1021D00080025A635A6D42F080025A655A6D5A69FC
:1021E00042F080025A615A6922F080025A610E213F
:1021F00043205B6900F022FC1E4BE3601E4BC4F8D9
:1022000000380023C4F8003EC02323606E6D4FF4F5
:102210000413A3633369002BFCDA012333610C2020
:10222000FFF7D0FA3369DB07FCD41220FFF7CAFAB4
:102230003369002BFCDA0026A6602846FFF776FFFC
:102240006B68C4F81068DB68C4F81468C4F81C68CC
:102250004BB90A4BA3614FF0FF336361A36843F0AE
:102260000103A36070BD064BF4E700BF682D00209A
:10227000003802404014004003002002003C30C0FF
:10228000083C30C0F8B5446D054600212046FFF7F4
:1022900079FFA96D00234FF001128F68C4F834381C
:1022A0004FF00066C4F81C284FF0FF3004EB4312D7
:1022B00001339F42C2F80069C2F8006BC2F80809F6
:1022C000C2F8080BF2D20B686A6DEB6563621023EB
:1022D0001361166916F01006FBD11220FFF772FA8F
:1022E000D4F8003823F4FE63C4F80038A36943F43B
:1022F000402343F01003A3610923C4F81038C4F845
:1023000014380A4BEB604FF0C043C4F8103B084B45
:10231000C4F8003BC4F81069C4F80039EB6D03F150
:10232000100243F48013EA65A362F8BD8436000806
:1023300040800010426D90F84E10D2F8003823F41F
:10234000FE6343EA0113C2F8003870472DE9F843F1
:1023500000EB8103456DDA68166806F00306731E0C
:10236000022B05EB41130C4680460FFA81F94FEA28
:1023700041104FF00001C3F8101B4FF0010104F1B0
:10238000100398BFB60401FA03F391698EBF334E70
:1023900006F1805606F5004600293AD0578A04F126
:1023A0005801490137436F50D5F81C180B43C5F845
:1023B0001C382B180021C3F8101953690127611E1E
:1023C000A7409BB3138A928B9B08012A88BF534373
:1023D000D8F85C20981842EA034301F1400205EB6B
:1023E0008202C8F85C00214653602846FFF7CAFE07
:1023F00008EB8900C3681B8A43EA845348346401AC
:102400001E432E51D5F81C381F43C5F81C78BDE873
:10241000F88305EB4917D7F8001B21F40041C7F8F2
:10242000001BD5F81C1821EA0303C0E704F13F03A1
:1024300005EB83030A4A5A6028462146FFF7A2FEAD
:1024400005EB4910D0F8003923F40043C0F80039F7
:10245000D5F81C3823EA0707D7E700BF0080001033
:1024600000040002826D1268C265FFF75FBE0000C3
:102470005831436D49015B5813F4004004D013F404
:10248000001F0CBF02200120704700004831436D3F
:1024900049015B5813F4004004D013F4001F0CBF33
:1024A000022001207047000000EB8101CB68196A0F
:1024B0000B6813604B6853607047000000EB8103AA
:1024C00030B5DD68AA691368D36019B9402B84BFA1
:1024D000402313606B8A1468426D1C44013CB4FBBA
:1024E000F3F46343033323F0030302EB411043EAA5
:1024F000C44343F0C043C0F8103B2B6803F0030310
:10250000012B09B20ED1D2F8083802EB411013F4B6
:10251000807FD0F8003B14BF43F0805343F000535A
:10252000C0F8003B02EB4112D2F8003B43F00443F9
:10253000C2F8003B30BD00002DE9F041244D6E6D26
:1025400006EB40130446D3F8087BC3F8087B380732
:102550000AD5D6F81438190706D505EB84032146A9
:10256000DB6828465B689847FA071FD5D6F8143809
:10257000DB071BD505EB8403D968CCB98B69488A86
:102580005A68B2FBF0F600FB16228AB91868DA68BE
:1025900090420DD2121AC3E90024302383F311882C
:1025A0000B482146FFF78AFF84F31188BDE8F081CC
:1025B000012303FA04F26B8923EA02036B81CB68DF
:1025C000002BF3D021460248BDE8F041184700BF78
:1025D000682D002000EB810370B5DD68436D6C69E8
:1025E0002668E6604A0156BB1A444FF40020C2F840
:1025F00010092A6802F00302012A0AB20ED1D3F8A8
:10260000080803EB421410F4807FD4F8000914BFCB
:1026100040F0805040F00050C4F8000903EB421233
:10262000D2F8000940F00440C2F80009D3F8340899
:10263000012202FA01F10143C3F8341870BD19B93F
:10264000402E84BF4020206020682E8A8419013CDF
:10265000B4FBF6F440EAC44040F000501A44C6E728
:102660002DE9F8433B4D6E6D06EB40130446D3F85D
:102670000889C3F8088918F0010F4FEA40171AD0EB
:10268000D6F81038DB0716D505EB8003D9684B69FF
:102690001868DA68904230D2121A4FF000091A60B6
:1026A000C3F80490302383F3118821462846FFF7AE
:1026B00091FF89F3118818F0800F1CD0D6F83438B8
:1026C0000126A640334216D005EB84036D6DD3F886
:1026D0000CC0DCF814200134E4B2D2F800E005EBC1
:1026E00004342F445168714515D3D5F8343823EAA2
:1026F0000606C5F83468BDE8F883012303FA04F23E
:102700002B8923EA02032B818B68002BD3D021462F
:1027100028469847CFE7BCF81000AEEB0103834290
:1027200028BF0346D7F8180980B2B3EB800FE2D870
:102730009068A0F1040959F8048FC4F80080A0EB58
:1027400009089844B8F1040FF5D818440B44906078
:102750005360C7E7682D00202DE9F74FA24C656D47
:102760006E69AB691E4016F480586E6107D0204632
:10277000FEF764FD03B0BDE8F04F00F04DBC002E45
:1027800012DAD5F8003E98489B071EBFD5F8003EE8
:1027900023F00303C5F8003ED5F8043823F0010305
:1027A000C5F80438FEF774FD370505D58E48FFF7E8
:1027B000BDFC8D48FEF75AFDB0040CD5D5F808389D
:1027C00013F0060FEB6823F470530CBF43F410535F
:1027D00043F4A053EB6031071BD56368DB681BB97A
:1027E000AB6923F00803AB612378052B0CD1D5F836
:1027F000003E7D489A071EBFD5F8003E23F0030334
:10280000C5F8003EFEF744FD6368DB680BB176480F
:102810009847F30274D4B70227D5D4F85490DFF860
:10282000C8B100274FF0010A09EB4712D2F8003B6C
:1028300003F44023B3F5802F11D1D2F8003B002BD5
:102840000DDA62890AFA07F322EA0303638104EBD3
:102850008703DB68DB6813B1394658469847A36D98
:1028600001379B68FFB29F42DED9F00617D5676D2E
:102870003A6AC2F30A1002F00F0302F4F012B2F542
:10288000802F00F08580B2F5402F08D104EB830340
:102890000022DB681B6A07F5805790426AD130033B
:1028A000D5F8184813D5E10302D50020FFF744FE00
:1028B000A20302D50120FFF73FFE630302D50220E9
:1028C000FFF73AFE270302D50320FFF735FE750315
:1028D0007FF550AFE00702D50020FFF7C1FEA1074A
:1028E00002D50120FFF7BCFE620702D50220FFF7E8
:1028F000B7FE23077FF53EAF0320FFF7B1FE39E7B0
:10290000636DDFF8E4A0019300274FF00109A36D88
:102910009B685FFA87FB9B453FF67DAF019B03EB0E
:102920004B13D3F8001901F44021B1F5802F1FD1CA
:10293000D3F8001900291BDAD3F8001941F09041AF
:10294000C3F80019D3F800190029FBDB5946606D64
:10295000FFF718FC218909FA0BF321EA030323810D
:1029600004EB8B03DB689B6813B1594650469847CC
:102970000137CCE7910708BFD7F80080072A98BF36
:1029800003F8018B02F1010298BF4FEA182884E78F
:10299000023304EB830207F580575268D2F818C05F
:1029A000DCF80820DCE9001CA1EB0C0C00218842BB
:1029B0000AD104EB830463689B699A6802449A60B5
:1029C0005A6802445A606AE711F0030F08BFD7F84B
:1029D00000808C4588BF02F8018B01F1010188BF9E
:1029E0004FEA1828E3E700BF682D0020436D03EB92
:1029F0004111D1F8003B43F40013C1F8003B70478C
:102A0000436D03EB4111D1F8003943F40013C1F8D1
:102A100000397047436D03EB4111D1F8003B23F4BB
:102A20000013C1F8003B7047436D03EB4111D1F82F
:102A3000003923F40013C1F80039704700F16043F6
:102A400003F561430901C9B283F80013012200F0C4
:102A50001F039A4043099B0003F1604303F5614360
:102A6000C3F880211A60704730B5039C01720433AB
:102A700004FB0325C0E90653049B03630021059B67
:102A8000C160C0E90000C0E90422C0E90842C0E911
:102A90000A11436330BD0000416A0022C0E90411FD
:102AA000C0E90A22C2606FF00101FEF7FBBE000020
:102AB000D0E90432934201D1C2680AB9181D7047A7
:102AC0000020704703691960C2680132C260C269A0
:102AD000134482690361934224BF436A0361002166
:102AE000FEF7D4BE38B504460D46E3683BB16269D3
:102AF000131D1268A3621344E362002007E0237AE7
:102B000033B929462046FEF7B1FE0028EDDA38BD7C
:102B10006FF00100FBE70000C368C269013BC360BE
:102B20004369134482694361934224BF436A43610A
:102B300000238362036B03B11847704770B53023DD
:102B4000044683F31188866A3EB9FFF7CBFF05463A
:102B500018B186F31188284670BDA36AE26A13F89B
:102B6000015BA362934202D32046FFF7D5FF002307
:102B700083F31188EFE700002DE9F84F04460E4675
:102B8000174698464FF0300989F311880025AA4668
:102B9000D4F828B0BBF1000F09D141462046FFF719
:102BA000A1FF20B18BF311882846BDE8F88FD4E946
:102BB0000A12A7EB050B521A934528BF9346BBF1A7
:102BC000400F1BD9334601F1400251F8040B43F882
:102BD000040B9142F9D1A36A40334036A3624035D9
:102BE000D4E90A239A4202D32046FFF795FF8AF3DD
:102BF0001188BD42D8D289F31188C9E730465A46B8
:102C0000FEF758F8A36A5B445E44A3625D44E7E7BD
:102C100010B5029C0172043303FB0421C0E90613C2
:102C20000023C0E90A33039B0363049BC460C0E92B
:102C30000000C0E90422C0E90842436310BD00005F
:102C4000026AC260426AC0E904220022C0E90A2284
:102C50006FF00101FEF726BED0E904239A4201D1AC
:102C6000C26822B9184650F8043B0B607047002335
:102C70001846FAE7C368C2690133C3604369134465
:102C800082694361934224BF436A43610021FEF796
:102C9000FDBD000038B504460D46E3683BB123692D
:102CA0001A1DA262E2691344E362002007E0237A5E
:102CB00033B929462046FEF7D9FD0028EDDA38BDA4
:102CC0006FF00100FBE7000003691960C268013A78
:102CD000C260C269134482690361934224BF436A9C
:102CE000036100238362036B03B118477047000040
:102CF00070B530230D460446114683F31188866A69
:102D00002EB9FFF7C7FF10B186F3118870BDA36A13
:102D10001D70A36AE26A01339342A36204D3E1699E
:102D200020460439FFF7D0FF002080F31188EDE73B
:102D30002DE9F84F04460D46904699464FF0300A6B
:102D40008AF311880026B346A76A4FB94946204640
:102D5000FFF7A0FF20B187F311883046BDE8F88F58
:102D6000D4E90A073A1AA8EB0607974228BF174684
:102D7000402F1BD905F1400355F8042B40F8042BD4
:102D80009D42F9D1A36A4033A3624036D4E90A23B5
:102D90009A4204D3E16920460439FFF795FF8BF38B
:102DA00011884645D9D28AF31188CDE729463A469B
:102DB000FDF780FFA36A3B443D44A3623E44E5E740
:102DC000D0E904239A4217D1C3689BB1836A8BB1BF
:102DD000043B9B1A0ED01360C368013BC360C369F8
:102DE0001A44836902619A4224BF436A0361002343
:102DF00083620123184670470023FBE700F036B9D1
:102E0000014B586A704700BF000C0040034B002282
:102E100058631A610222DA60704700BF000C00405C
:102E2000014B0022DA607047000C0040014B5863F0
:102E3000704700BF000C0040FEE7000070B51B4B60
:102E400001630025044686B0586085620E4600F096
:102E5000BFF804F11003C4E904334FF0FF33C4E9B1
:102E60000635C4E90044A560E562FFF7C9FF2B46BB
:102E70000246C4E9082304F134010D4A2565802384
:102E80002046FEF7A9FC0123E0600A4A0375009280
:102E900072680192B268CDE90223074B6846CDE91A
:102EA0000435FEF7C1FC06B070BD00BF002600204F
:102EB000B4360008B9360008392E0008024AD36A31
:102EC0001843D062704700BF982300204B684360CE
:102ED0008B688360CB68C3600B6943614B69036295
:102EE0008B6943620B6803607047000008B5264B8E
:102EF00026481A6940F2FF110A431A611A6922F43E
:102F0000FF7222F001021A611A691A6B0A431A63EE
:102F10001A6D0A431A651E4A1B6D1146FFF7D6FF4C
:102F200002F11C0100F58060FFF7D0FF02F13801CB
:102F300000F58060FFF7CAFF02F1540100F58060E0
:102F4000FFF7C4FF02F1700100F58060FFF7BEFFDC
:102F500002F18C0100F58060FFF7B8FF02F1A801D3
:102F600000F58060FFF7B2FF02F1C40100F5806058
:102F7000FFF7ACFF02F1E00100F58060FFF7A6FF6C
:102F8000BDE8084000F0F0B8003802400000024000
:102F9000C036000808B500F05BFAFEF7FBFBFFF750
:102FA0008DF8BDE80840FEF769BE000070470000DC
:102FB000EFF3098305494A6B22F001024A63683343
:102FC00083F30988002383F31188704700EF00E042
:102FD000302080F3118862B60C4B0D4AD96821F479
:102FE000E0610904090C0A43DA60D3F8FC200949BE
:102FF00042F08072C3F8FC200A6842F001020A60C5
:103000002022DA7783F82200704700BF00ED00E04D
:103010000003FA05001000E010B5302383F3118897
:103020000E4B5B6813F4006314D0F1EE103AEFF32B
:103030000984683C4FF08073E361094BDB6B2366C6
:1030400084F30988FEF786FB10B1064BA36110BD1F
:10305000054BFBE783F31188F9E700BF00ED00E0C3
:1030600000EF00E02F030008320300080E4B1A6C3B
:1030700042F008021A641A6E42F008021A660B4AFD
:103080001B6E936843F008039360094B53229A62C6
:103090004FF0FF32DA6200229A615A63DA605A60B6
:1030A00001225A611A60704700380240002004E093
:1030B000000C0040094A08B51169D3680B40D9B229
:1030C000C9439B07116107D5302383F31188FEF7AD
:1030D00077FB002383F3118808BD00BF000C00407C
:1030E0001F4B1A696FEAC2526FEAD2521A611A690B
:1030F000C2F308021A614FF0FF301A695A69586129
:1031000000215A6959615A691A6A62F080521A623A
:103110001A6A02F080521A621A6A5A6A58625A6A25
:1031200059625A6A1A6C42F080521A641A6E42F05E
:1031300080521A661A6E0B4A106840F48070106054
:10314000186F00F44070B0F5007F1EBF4FF4803060
:1031500018671967536823F40073536000F054B97B
:103160000038024000700040334B4FF080521A6428
:10317000324A4FF4404111601A6842F001021A606D
:103180001A689107FCD59A6822F003029A602A4BCC
:103190009A6812F00C02FBD1196801F0F90119606C
:1031A0009A601A6842F480321A601A689203FCD559
:1031B0005A6F42F001025A671F4B5A6F9007FCD5B5
:1031C0001F4A5A601A6842F080721A601B4A53689C
:1031D0005904FCD5184B1A689201FCD5194A9A601B
:1031E000194B1A68194B9A42194B21D1194A116887
:1031F000194A91421CD140F205121A60144A136810
:1032000003F00F03052BFAD10B4B9A6842F0020230
:103210009A609A6802F00C02082AFAD15A6C42F4B9
:1032200080425A645A6E42F480425A665B6E70471E
:1032300040F20572E1E700BF003802400070004034
:103240000854400700948838002004E011640020EE
:10325000003C024000ED00E041C20F41074A08B5C2
:10326000536903F00103536123B1054A13680BB19D
:1032700050689847BDE80840FFF7CEBE003C0140CB
:10328000E02D0020074A08B5536903F0020353619B
:1032900023B1054A93680BB1D0689847BDE8084050
:1032A000FFF7BABE003C0140E02D0020074A08B5F8
:1032B000536903F00403536123B1054A13690BB149
:1032C00050699847BDE80840FFF7A6BE003C0140A2
:1032D000E02D0020074A08B5536903F00803536145
:1032E00023B1054A93690BB1D0699847BDE80840FE
:1032F000FFF792BE003C0140E02D0020074A08B5D0
:10330000536903F01003536123B1054A136A0BB1EB
:10331000506A9847BDE80840FFF77EBE003C014078
:10332000E02D0020164B10B55C6904F478725A61E8
:10333000A30604D5134A936A0BB1D06A9847600676
:1033400004D5104A136B0BB1506B9847210604D576
:103350000C4A936B0BB1D06B9847E20504D5094A30
:10336000136C0BB1506C9847A30504D5054A936CB8
:103370000BB1D06C9847BDE81040FFF74DBE00BFC1
:10338000003C0140E02D0020194B10B55C6904F4AD
:103390007C425A61620504D5164A136D0BB1506D1B
:1033A0009847230504D5134A936D0BB1D06D984708
:1033B000E00404D50F4A136E0BB1506E9847A10478
:1033C00004D50C4A936E0BB1D06E9847620404D5B5
:1033D000084A136F0BB1506F9847230404D5054A70
:1033E000936F0BB1D06F9847BDE81040FFF714BE44
:1033F000003C0140E02D002008B5FFF75BFEBDE872
:103400000840FFF709BE0000062108B50846FFF78F
:1034100015FB06210720FFF711FB06210820FFF707
:103420000DFB06210920FFF709FB06210A20FFF703
:1034300005FB06211720FFF701FB06212820FFF7D7
:10344000FDFABDE8084007213220FFF7F7BA000077
:1034500008B5FFF745FE00F00BF8FDF785FEFDF718
:103460005DFDFFF7A3FDBDE80840FFF7C7BC000006
:103470000023054A19460133102BC2E9001102F15D
:103480000802F8D1704700BFE02D0020034611F874
:10349000012B03F8012B002AF9D1704753544D3307
:1034A00032463F3F3F0053544D333246343078006C
:1034B00053544D3332463432780053544D333246F0
:1034C0003434365858000000012033000010410009
:1034D00001105A00031059000710310000000000CD
:1034E0009C34000813040000A634000819040000EE
:1034F000B034000821040000BA34000800000000C5
:10350000990E0008850E0008C10E0008AD0E0008D7
:10351000B90E0008A50E0008910E00087D0E0008E7
:10352000CD0E0008000000000100000000000000B7
:103530006330000030350008F02300200026002012
:103540004172647550696C6F740025424F4152445A
:10355000252D424C002553455249414C2500000081
:103560000200000000000000B51000082111000852
:1035700040004000A02A0020B02A002002000000E5
:1035800000000000030000000000000065110008BA
:103590000000000010000000C02A00200000000011
:1035A0000100000000000000682D00200101020061
:1035B000191C0008291B0008C51B0008A91B0008CE
:1035C00043000000C835000809024300020100C0A2
:1035D0003209040000010202010005240010010567
:1035E00024010001042402020524060001070582CB
:1035F000030800FF09040100020A0000000705019A
:103600000240000007058102400000001200000097
:10361000143600081201100102000040091241573F
:1036200000020102030100000403090425424F4186
:10363000524425006372617A79666C6965325F6213
:103640006C003031323334353637383941424344F7
:10365000454600000040000000400000004000001F
:103660000040000000000100000002000000020015
:103670000000020000000200000002000000020042
:103680000000020000000000A912000861150008F7
:103690000D16000840004000C82D0020C82D002055
:1036A00001000000D82D0020800000004001000033
:1036B000030000006D61696E0069646C65000000C4
:1036C0000000800200000000AAAAAAAA00000000D0
:1036D000FFFF00000000000000A00A00000501003C
:1036E00000000000AAAAAAAA00050100FFFF00002E
:1036F00000000000000000000100000100000000C8
:10370000AAAAAAAA00000001FFFF00000000000012
:10371000000000001000000000000000AAAAAAAAF1
:1037200000000000FFFF000000000000000000009B
:103730000000000000000000AAAAAAAA00000000E1
:10374000FFFF00000000000000000000000000007B
:1037500000000000AAAAAAAA00000000FFFF0000C3
:103760000000000000000000000000000000000059
:10377000AAAAAAAA00000000FFFF000000000000A3
:103780000000000000000000000000000A0000002F
:103790000000000003000000000000000000000026
:1037A0000000000000000000000000000000000019
:1037B0000000000000000000000000000000000009
:1037C0000D0000000000000000000F0000000000DD
:1037D000FF009600000000080096000000000800AE
:1037E000040000002836000800000000000000006F
:1037F00000000000000000000000000000000000C9
:10380000FFFFFFFFFFFFFFFFFFFFFFFFFFFFFFFFC8
:10381000FFFFFFFFFFFFFFFFFFFFFFFFFFFFFFFFB8
:10382000FFFFFFFFFFFFFFFFFFFFFFFFFFFFFFFFA8
:020000040801F1
:1000000000060020A9120108A5CA090801CA0908AA
:100010006DCA090801CA090839CA0908AB120108E2
:10002000AB120108AB120108AB1201083D7F0C08AE
:10003000AB120108AB120108AB120108AB120108A8
:10004000AB120108AB120108AB120108AB12010898
:10005000AB120108AB120108D58A0C08FD8A0C0806
:10006000258B0C084D8B0C08758B0C08C1350C08C2
:10007000E9350C0815360C0841360C086D360C08AD
:1000800095360C08C1360C08AB120108AB120108FA
:10009000AB120108AB120108AB1201089D8B0C08D2
:1000A000AB120108AB120108AB120108AB12010838
:1000B000AD8C0C08AB120108AB120108193F0C08FB
:1000C0002D3F0C08AB120108AB120108AB1201085E
:1000D000AB120108AB120108718C0C08858C0C085E
:1000E000018C0C08AB120108AB120108AB1201081D
:1000F000AB120108AB120108AB120108ED360C0877
:10010000AB120108AB120108C18C0C08AB1201083C
:10011000AB120108AB120108AB120108AB120108C7
:1001200019370C0841370C086D370C0899370C0843
:10013000C5370C08AB120108AB120108AB1201085D
:10014000AB120108AB120108AB12010869860C085A
:10015000ED370C0819380C0845380C08998C0C0838
:10016000513F0C08653F0C08AB120108AB120108A7
:10017000AB120108AB120108AB120108AB12010867
:10018000AB120108AB120108AB120108AB12010857
:10019000AB120108AB120108AB120108AB12010847
:1001A000AB120108AB120108AB120108AB12010837
:1001B000AB120108AB120108AB120108AB12010827
:1001C000AB120108AB120108AB120108AB12010817
:1001D000AB120108AB120108AB120108AB12010807
:1001E000DD340108D16401080DE10108D91F0208BE
:1001F000B9960208E5020408F1E80508F9EE0508D9
:100200003972060861DF06083DE7060875EA060848
:10021000495C0708697A07089D1F0808A545080872
:10022000FD520808D9BB09085DC1090855D50A085F
:10023000BD420B0845690B0871810B08D9AE0B084C
:1002400031B40B08000000000000000000000000B6
:1002500081F0004102E000BF83F0004330B54FEA77
:1002600041044FEA430594EA050F08BF90EA020FE4
:100270001FBF54EA000C55EA020C7FEA645C7FEA77
:10028000655C00F0E2804FEA5454D4EB5555B8BF9A
:100290006D420CDD2C4480EA020281EA030382EA0B
:1002A000000083EA010180EA020281EA0303362D9D
:1002B00088BF30BD11F0004F4FEA01314FF4801C70
:1002C0004CEA113102D0404261EB410113F0004F82
:1002D0004FEA03334CEA133302D0524263EB430339
:1002E00094EA050F00F0A780A4F10104D5F1200ED7
:1002F0000DDB02FA0EFC22FA05F2801841F1000132
:1003000003FA0EF2801843FA05F359410EE0A5F105
:1003100020050EF1200E012A03FA0EFC28BF4CF036
:10032000020C43FA05F3C01851EBE37101F00045EC
:1003300007D54FF0000EDCF1000C7EEB00006EEBF9
:100340000101B1F5801F1BD3B1F5001F0CD3490883
:100350005FEA30004FEA3C0C04F101044FEA4452DA
:1003600012F5800F80F09A80BCF1004F08BF5FEA61
:10037000500C50F1000041EB045141EA050130BD41
:100380005FEA4C0C404141EB0101013C28BFB1F553
:10039000801FE9D291F0000F04BF01460020B1FA9E
:1003A00081F308BF2033A3F10B03B3F120020CDA71
:1003B0000C3208DD02F1140CC2F10C0201FA0CF04F
:1003C00021FA02F10CE002F11402D8BFC2F1200CB4
:1003D00001FA02F120FA0CFCDCBF41EA0C0190406A
:1003E000E41AA2BF01EB0451294330BD6FEA0404B3
:1003F0001F3C1CDA0C340EDC04F11404C4F120029E
:1004000020FA04F001FA02F340EA030021FA04F3AF
:1004100045EA030130BDC4F10C04C4F1200220FA06
:1004200002F001FA04F340EA0300294630BD21FA44
:1004300004F0294630BD94F0000F83F4801306BF0A
:1004400081F480110134013D4EE77FEA645C18BFFE
:100450007FEA655C29D094EA050F08BF90EA020F95
:1004600005D054EA000C04BF1946104630BD91EA8D
:10047000030F1EBF0021002030BD5FEA545C05D190
:100480004000494128BF41F0004130BD14F58004CF
:100490003CBF01F5801130BD01F0004545F0FE4143
:1004A00041F470014FF0000030BD7FEA645C1ABF78
:1004B000194610467FEA655C1CBF0B46024650EAAF
:1004C000013406BF52EA033591EA030F41F40021DB
:1004D00030BD00BF90F0000F04BF0021704730B561
:1004E0004FF4806404F132044FF000054FF0000136
:1004F00050E700BF90F0000F04BF0021704730B5F7
:100500004FF4806404F1320410F0004548BF4042CB
:100510004FF000013EE700BF42004FEAE2014FEA20
:1005200031014FEA02701FBF12F07F4393F07F4FFB
:1005300081F06051704732F07F4208BF704793F0FE
:100540007F4F04BF41F40021704730B54FF4607411
:1005500001F0004521F000411CE700BF50EA010214
:1005600008BF704730B54FF000050AE050EA0102BD
:1005700008BF704730B511F0004502D5404261EB2D
:1005800041014FF4806404F132045FEA915C3FF46E
:10059000D8AE4FF003025FEADC0C18BF03325FEA0B
:1005A000DC0C18BF033202EBDC02C2F1200300FABC
:1005B00003FC20FA02F001FA03FE40EA0E0021FAE1
:1005C00002F11444BDE600BF70B54FF0FF0C4CF4CF
:1005D000E06C1CEA11541DBF1CEA135594EA0C0F81
:1005E00095EA0C0F00F0DEF82C4481EA030621EABC
:1005F0004C5123EA4C5350EA013518BF52EA0335F7
:1006000041F4801143F4801338D0A0FB02CE4FF0A8
:100610000005E1FB02E506F00042E0FB03E54FF0D8
:100620000006E1FB03569CF0000F18BF4EF0010ED0
:10063000A4F1FF04B6F5007F64F5407404D25FEACC
:100640004E0E6D4146EB060642EAC62141EA55517F
:100650004FEAC52040EA5E504FEACE2EB4F1FD0CC1
:1006600088BFBCF5E06F1ED8BEF1004F08BF5FEA3F
:10067000500E50F1000041EB045170BD06F00046F1
:1006800046EA010140EA020081EA0301B4EB5C049E
:10069000C2BFD4EB0C0541EA045170BD41F4801196
:1006A0004FF0000E013C00F3AB8014F1360FDEBFBB
:1006B000002001F0004170BDC4F10004203C35DA97
:1006C0000C341BDC04F11404C4F1200500FA05F31A
:1006D00020FA04F001FA05F240EA020001F00042BB
:1006E00021F0004110EBD37021FA04F642EB060131
:1006F0005EEA430E08BF20EAD37070BDC4F10C045B
:10070000C4F1200500FA04F320FA05F001FA04F21E
:1007100040EA020001F0004110EBD37041F100010A
:100720005EEA430E08BF20EAD37070BDC4F1200515
:1007300000FA05F24EEA020E20FA04F301FA05F27D
:1007400043EA020321FA04F001F0004121FA04F225
:1007500020EA020000EBD3705EEA430E08BF20EAF5
:10076000D37070BD94F0000F0FD101F0004640002F
:1007700041EB010111F4801F08BF013CF7D041EAB1
:10078000060195F0000F18BF704703F000465200B5
:1007900043EB030313F4801F08BF013DF7D043EA86
:1007A0000603704794EA0C0F0CEA135518BF95EA3C
:1007B0000C0F0CD050EA410618BF52EA4306D1D1C3
:1007C00081EA030101F000414FF0000070BD50EAE2
:1007D000410606BF1046194652EA430619D094EA6C
:1007E0000C0F02D150EA013613D195EA0C0F05D156
:1007F00052EA03361CBF104619460AD181EA0301AA
:1008000001F0004141F0FE4141F470014FF0000061
:1008100070BD41F0FE4141F4780170BD70B54FF0FC
:10082000FF0C4CF4E06C1CEA11541DBF1CEA13557C
:1008300094EA0C0F95EA0C0F00F0A7F8A4EB05045E
:1008400081EA030E52EA03354FEA013100F0888055
:100850004FEA03334FF0805545EA131343EA12631E
:100860004FEA022245EA111545EA10654FEA0026D3
:100870000EF000419D4208BF964244F1FD0404F58C
:10088000407402D25B084FEA3202B61A65EB0305E8
:100890005B084FEA32024FF480104FF4002CB6EBA5
:1008A000020E75EB030E22BFB61A754640EA0C0025
:1008B0005B084FEA3202B6EB020E75EB030E22BF65
:1008C000B61A754640EA5C005B084FEA3202B6EBA6
:1008D000020E75EB030E22BFB61A754640EA9C0065
:1008E0005B084FEA3202B6EB020E75EB030E22BF35
:1008F000B61A754640EADC0055EA060E18D04FEAF3
:10090000051545EA16754FEA06164FEAC30343EA92
:1009100052734FEAC2025FEA1C1CC0D111F4801F5F
:100920000BD141EA00014FF000004FF0004CB6E758
:1009300011F4801F04BF01430020B4F1FD0C88BFF7
:10094000BCF5E06F3FF6AFAEB5EB030C04BFB6EB02
:10095000020C5FEA500C50F1000041EB045170BDF5
:100960000EF0004E4EEA113114EB5C04C2BFD4EB22
:100970000C0541EA045170BD41F480114FF0000EA6
:10098000013C90E645EA060E8DE60CEA135594EA22
:100990000C0F08BF95EA0C0F3FF43BAF94EA0C0F25
:1009A0000AD150EA01347FF434AF95EA0C0F7FF49A
:1009B00025AF104619462CE795EA0C0F06D152EAEE
:1009C00003353FF4FDAE1046194622E750EA4106D2
:1009D00018BF52EA43067FF4C5AE50EA41047FF4E3
:1009E0000DAF52EA43057FF4EBAE12E74FF0FF3C48
:1009F00006E000BF4FF0010C02E000BF4FF0010C19
:100A00004DF804CD4FEA410C7FEA6C5C4FEA430C91
:100A100018BF7FEA6C5C1BD001B050EA410C0CBFE0
:100A200052EA430C91EA030F02BF90EA020F002042
:100A3000704710F1000F91EA030F58BF994208BFA9
:100A400090422CBFD8176FEAE37040F00100704766
:100A50004FEA410C7FEA6C5C02D150EA013C07D1BD
:100A60004FEA430C7FEA6C5CD6D152EA033CD3D008
:100A70005DF8040B704700BF8446104662468C4602
:100A80001946634600E000BF01B5FFF7B7FF002835
:100A900048BF10F1000F01BD4DF808EDFFF7F4FF5E
:100AA0000CBF012000205DF808FB00BF4DF808EDE9
:100AB000FFF7EAFF34BF012000205DF808FB00BF0C
:100AC0004DF808EDFFF7E0FF94BF012000205DF82E
:100AD00008FB00BF4DF808EDFFF7CEFF94BF0120E3
:100AE00000205DF808FB00BF4DF808EDFFF7C4FFDC
:100AF00034BF012000205DF808FB00BF4FEA410C25
:100B00007FEA6C5C02D150EA013C0AD14FEA430C07
:100B10007FEA6C5C02D152EA033C02D14FF0000044
:100B200070474FF0010070474FEA410212F5001282
:100B300015D211D56FF47873B3EB625212D94FEA24
:100B4000C12343F0004343EA505311F0004F23FA0E
:100B500002F018BF404270474FF00000704750EA63
:100B6000013005D111F0004008BF6FF00040704720
:100B70004FF00000704700BF4A0011D212F500127A
:100B800011D20DD56FF47873B3EB62520ED44FEAE5
:100B9000C12343F0004343EA505323FA02F0704765
:100BA0004FF00000704750EA013002D14FF0FF30A3
:100BB00070474FF0000070474FEA4102B2F1E04346
:100BC00024BFB3F5001CDCF1FE5C0DD901F0004C34
:100BD0004FEAC0024CEA5070B2F1004F40EB830084
:100BE00008BF20F00100704711F0804F21D113F1B0
:100BF0003872BCBF01F00040704741F480114FEAE9
:100C00005252C2F11802C2F1200C10FA0CF320FA71
:100C100002F018BF40F001004FEAC1234FEAD3238E
:100C200003FA0CFC40EA0C0023FA02F34FEA4303F8
:100C3000CCE77FEA625307D150EA01331EBF4FF081
:100C4000FE4040F44000704701F0004040F0FE409C
:100C500040F40000704700BF80F0004002E000BF99
:100C600081F0004142001FBF5FEA410392EA030F97
:100C70007FEA226C7FEA236C6AD04FEA1262D2EBE1
:100C80001363C1BFD218414048404140B8BF5B42E6
:100C9000192B88BF704710F0004F40F4000020F07F
:100CA0007F4018BF404211F0004F41F4000121F095
:100CB0007F4118BF494292EA030F3FD0A2F10102DF
:100CC00041FA03FC10EB0C00C3F1200301FA03F11D
:100CD00000F0004302D5494260EB4000B0F5000F40
:100CE00013D3B0F1807F06D340084FEA310102F1FF
:100CF0000102FE2A51D2B1F1004F40EBC25008BFB1
:100D000020F0010040EA03007047490040EB00007A
:100D1000013A28BFB0F5000FEDD2B0FA80FCACF17B
:100D2000080CB2EB0C0200FA0CF0AABF00EBC250A8
:100D300052421843BCBFD0401843704792F0000F96
:100D400081F4000106BF80F400000132013BB5E7E9
:100D50004FEA41037FEA226C18BF7FEA236C21D05F
:100D600092EA030F04D092F0000F08BF08467047C4
:100D700090EA010F1CBF0020704712F07F4F04D192
:100D8000400028BF40F00040704712F100723CBFA5
:100D900000F50000704700F0004343F0FE4040F4CF
:100DA000000070477FEA226216BF08467FEA23638D
:100DB0000146420206BF5FEA412390EA010F40F478
:100DC000800070474FF0000304E000BF10F00043C4
:100DD00048BF40425FEA000C08BF704743F09643AB
:100DE00001464FF000001CE050EA010208BF7047C6
:100DF0004FF000030AE000BF50EA010208BF70474D
:100E000011F0004302D5404261EB41015FEA010C61
:100E100002BF84460146002043F0B64308BFA3F159
:100E20008053A3F50003BCFA8CF2083AA3EBC2533B
:100E300010DB01FA02FC634400FA02FCC2F120025A
:100E4000BCF1004F20FA02F243EB020008BF20F091
:100E50000100704702F1200201FA02FCC2F12002F7
:100E600050EA4C0021FA02F243EB020008BF20EAEC
:100E7000DC7070477BB972B90029BEBF00204FF00B
:100E8000004106E008BF00281CBF6FF000414FF092
:100E9000FF3000F007BAADF1080C6DE904CE00296F
:100EA00009DB002B1ADB00F095F8DDF804E0DDE942
:100EB000022304B07047404261EB4101002B1BDB71
:100EC00000F088F8DDF804E0DDE9022304B04042D8
:100ED00061EB4101524263EB43037047524263EBC3
:100EE000430300F077F8DDF804E0DDE9022304B005
:100EF000404261EB41017047524263EB430300F013
:100F000069F8DDF804E0DDE9022304B0524263EB46
:100F10004303704753B94AB9002908BF00281CBFD2
:100F20004FF0FF314FF0FF3000F0BCB9ADF1080CCD
:100F30006DE904CE00F04EF8DDF804E0DDE90223AF
:100F400004B07047430803F05533C01A830803F018
:100F5000333300F03330184400EB101000F00F3042
:100F600000EB002000EB0040000E704707EE900AF7
:100F7000F5EEC07AF1EE10FA01D400F00BB8F1EE04
:100F8000677A08B517EE900A00F004F8404261EB6A
:100F9000410108BDD0B5FFF7BFFA0C4B0022064651
:100FA0000F46FFF711FBFFF7E7FD0446FFF792FA44
:100FB000074B0022FFF708FB02460B463046394636
:100FC000FFF74AF9FFF7D8FD2146D0BD0000F03DFC
:100FD0000000F0412DE9F047089D04468E46002BA5
:100FE0004DD18A42944669D9B2FA82F252B101FADD
:100FF00002F3C2F1200120FA01F10CFA02FC41EAED
:10100000030E94404FEA1C48210CBEFBF8F61FFA71
:101010008CF708FB16E341EA034306FB07F199420C
:101020000AD91CEB030306F1FF3080F01F819942BF
:1010300040F21C81023E63445B1AA4B2B3FBF8F099
:1010400008FB103344EA034400FB07F7A7420AD920
:101050001CEB040400F1FF3380F00A81A74240F248
:1010600007816444023840EA0640E41B00261DB1B3
:10107000D4400023C5E900433146BDE8F0878B42E8
:1010800009D9002D00F0EF800026C5E900013046A7
:101090003146BDE8F087B3FA83F6002E4AD18B4281
:1010A00002D3824200F2F980841A61EB030301202B
:1010B0009E46002DE0D0C5E9004EDDE702B9FFDE17
:1010C000B2FA82F2002A40F09280A1EB0C014FEAC2
:1010D0001C471FFA8CFE0126200CB1FBF7F307FB1F
:1010E000131140EA01410EFB03F0884208D91CEBC2
:1010F000010103F1FF3802D2884200F2CB8043465F
:10110000091AA4B2B1FBF7F007FB101144EA01443D
:101110000EFB00FEA64508D91CEB040400F1FF31CC
:1011200002D2A64500F2BB800846A4EB0E0440EABA
:1011300003409CE7C6F12007B34022FA07FC4CEAC3
:10114000030C20FA07F401FA06F31C43F9404FEAB6
:101150001C4900FA06F3B1FBF9F8200C1FFA8CFECB
:1011600009FB181140EA014108FB0EF0884202FA1F
:1011700006F20BD91CEB010108F1FF3A80F08880E0
:10118000884240F28580A8F102086144091AA4B29D
:10119000B1FBF9F009FB101144EA014100FB0EFE1E
:1011A0008E4508D91CEB010100F1FF346CD28E454D
:1011B0006AD90238614440EA0840A0FB0294A1EBDE
:1011C0000E01A142C846A64656D353D05DB1B3EB3B
:1011D000080261EB0E0101FA07F722FA06F3F1406B
:1011E0001F43C5E9007100263146BDE8F087C2F112
:1011F0002003D8400CFA02FC21FA03F3914001438A
:101200004FEA1C471FFA8CFEB3FBF7F007FB1036C2
:101210000B0C43EA064300FB0EF69E4204FA02F46E
:1012200008D91CEB030300F1FF382FD29E422DD9C1
:10123000023863449B1B89B2B3FBF7F607FB1633F6
:1012400041EA034106FB0EF38B4208D91CEB010176
:1012500006F1FF3816D28B4214D9023E6144C91AF6
:1012600046EA004638E72E46284605E70646E3E606
:101270001846F8E64B45A9D2B9EB020864EB0C0E10
:101280000138A3E74646EAE7204694E74046D1E71F
:10129000D0467BE7023B614432E7304609E76444CD
:1012A000023842E7704700BF02E000F000F8FEE7B6
:1012B00072B6374880F30888364880F30988364884
:1012C0003649086040F20000CCF200004EF634715E
:1012D000CEF200010860BFF34F8FBFF36F8F40F273
:1012E0000000C0F2F0004EF68851CEF20001086016
:1012F000BFF34F8FBFF36F8F4FF00000E1EE100A86
:101300004EF63C71CEF200010860062080F314888E
:10131000BFF36F8FB6F070FEB5F048FF4FF0553059
:101320001F491B4A91423CBF41F8040BFAE71D4993
:10133000184A91423CBF41F8040BFAE71A491B4A8C
:101340001B4B9A423EBF51F8040B42F8040BF8E7DE
:1013500000201849184A91423CBF41F8040BFAE7B3
:10136000B6F04EFEB5F076FF144C154DAC4203DAE4
:1013700054F8041B8847F9E702F036F8114C124D77
:10138000AC4203DA54F8041B8847F9E7B6F036BEDE
:1013900000060020002200200000010808ED00E007
:1013A0000000002000060020880B0F08002200200B
:1013B0002426002028260020D8670120E00101080B
:1013C0004402010844020108440201082DE9F04FDB
:1013D0002DED108AC1F80CD0C3689D46BDEC108A73
:1013E000BDE8F08F002383F311882846A047002032
:1013F000B5F062FCFEE7B5F0CFFA00DFFEE70000D3
:1014000001F0FF01102A2BDB10F0070F08D010F8B5
:10141000013B013A8B422DD010F0070F42B3F6D1B9
:10142000F0B441EA012141EA014122F007047FF0D2
:1014300000070023F0E80256083C85EA010586EA29
:10144000010685FA47F5A3FA87F586FA47F6A5FA65
:1014500087F68EB9EED1F0BC01F0FF0102F0070271
:1014600032B110F8013B013A83EA010313B1F8D11C
:101470000020704701387047002D06BF35460338FD
:10148000073815F0010F07D1013015F4807F02BF36
:10149000013015F4C03F0130F0BC0138704700BF87
:1014A00010F8012B11F8013B012A28BF9A42F7D00E
:1014B000D01A7047034613F8012B002AFBD1181AE3
:1014C0000138704738B50022002304460D46FFF767
:1014D000EDFA28B920462946BDE8384000F00AB8A0
:1014E000204605F1004100F005F8404261EB410162
:1014F00038BD00BFD0B50C4B002206460F46FFF7A3
:1015000063F8FFF739FB0446FEF7E4FF074B0022C0
:10151000FFF75AF802460B4630463946FEF79CFE66
:10152000FFF72AFB2146D0BD0000F03D0000F0414E
:10153000036800221B6818477FB5039140210546C8
:1015400079F02AFF039A18B90124204604B070BD2F
:10155000134E039296F9C639002BF5D064F0B8FD0E
:10156000437A039A53B964F0B3FD847A039A2CB991
:101570000C4B4021284679F017FFE6E70A4BB6F9F5
:10158000C819D3F83832B3F906309942DCDD074B7D
:1015900000934021064B284679F006FF0024D4E74B
:1015A0003046002020090D08305600203F090D0864
:1015B0002D090D08F0B50D469DB02021044679F0A7
:1015C000EBFE002800F08980454E96F9C639BBB184
:1015D00006F58052B6F9C839D2F83822B2F90A10A5
:1015E00003F10A02914203DD40F28D32934207DC9F
:1015F0003C4B2A462021204679F0D6FE00206AE0A6
:1016000096F9B539022B05D1374B2A4620212046C1
:1016100079F0CAFEB6F88839A3F57A739BB241F621
:101620005832934205D8B6F9C239002B03DC2F4B50
:10163000DFE72F4BDDE796F83C2A0D2A06D8012379
:10164000934013F4215F01D02A4BD2E72A482B4F55
:101650000EF0E2F8012806D1D7F8140C81F022FF31
:1016600098B101281AD00021602204A80391BAF091
:1016700031FE2349D7F8100C642303AA80F07EFAC8
:1016800000BB03AB00931F4B02E01F4B00931F4BAB
:101690002A462021204679F087FEAFE797F84C32A2
:1016A00073B11B4819214DF053FE48B11848D6F8C4
:1016B000A06919214DF072FE8642D4DD154BE5E795
:1016C000154BE3E71549D7F8080C642303AA7DF00E
:1016D00093F90028D5D01DB0F0BD0120FBE700BF75
:1016E0003046002048090D085B090D0893090D08D4
:1016F00083090D08A8090D08B0720020305600209B
:10170000220A0D08260A0D08ED090D08C8090D0862
:10171000083600200C0A0D08FD090D08380A0D08CE
:1017200007B5044883F002FA00F0010003B05DF849
:1017300004FB00BF1C6200202DE9F043DFF8449158
:101740000446D9F83C060368A5B01B690D469847C6
:10175000804612F085FD0021074660220CA80B91FF
:10176000BAF0B8FD64230BAA4146384612F076F869
:10177000064648B93A4A0BAB294620467AF01CF88F
:10178000304625B0BDE8F083A9F638006EF084FE3F
:10179000B8F1000F03D194F91E30012B0AD1314862
:1017A0000FF08AFD80B9304A294620467AF004F8C5
:1017B0000026E5E710F0060FE2D0A9F540500FF043
:1017C0007BFD08B9294AEFE703A9384611F066FE08
:1017D00028B19DF80D305B0601D5254AE4E7DFF816
:1017E000A880D8ED007AF5EEC07AF1EE10FA4FF04D
:1017F0000003C5DD089309930A930DF1200907AB97
:10180000019305AA06AB04A9CDF80090384612F062
:1018100039FA48462BF0ACFDD8ED007AB4EEE70A71
:10182000F1EE10FA01DB134ABEE79DED057AF4EE06
:10183000C77AF1EE10FA01D80F4AB5E79DED047AA8
:10184000F4EEC77AF1EE10FA01D80C4AACE79DED40
:10185000067AF4EEC77AF1EE10FA91D8084AA3E7B7
:101860003C0A0D0830260020450A0D085C0A0D08C8
:10187000820A0D08900A0D08A50A0D08BB0A0D087A
:10188000D10A0D08305600201450002008B5064B30
:1018900093F855369B0704D5044A79F08DFF002054
:1018A00008BD0120FCE700BF30560020E80A0D0803
:1018B00070B50C4C0546D4F83C0603685B690E46CF
:1018C000984710B10124204670BDA4F540500FF098
:1018D00005FD04460028F5D1034A3146284679F033
:1018E0006BFFF0E730560020F80A0D082DE9F046AE
:1018F000464ED6F8603693F8CB509BB081468A4668
:1019000065B9434B1B68986A03685B6B984704464C
:1019100040B9404A5146484679F04EFF28461BB030
:10192000BDE8F08664F0D4FB202165F033FB58B1AC
:1019300064F0CEFB1F2165F02DFB88B3364A51467B
:10194000484679F039FF002496F8323603F0140344
:10195000142B05D1314A5146484679F02DFF002419
:10196000514648467AF002FE002188424FF060025C
:1019700002A808BF0C460191BAF0ACFCD6F860068C
:10198000036801AA1B6864219847054680B9244A68
:1019900001AB5146484679F00FFF2C462546BDE77E
:1019A00064F096FBA52165F0F5FA0028C6D1CBE7D7
:1019B000002CF3D0D9F808303BB9D9F800305146A3
:1019C0005B6B484698470446E8E751464846FFF7B0
:1019D000F1FD514607464846FFF758FF3840C4B26C
:1019E00051464846FFF7A8FD514604404846FFF7D8
:1019F0005FFF51460440484679F006FF51460440D7
:101A000048467AF0CBFD0440C8E700BF30560020BE
:101A1000C07300200C0B0D08230B0D083D0B0D08A7
:101A2000550B0D0808B5FFF761FF054A92F830160F
:101A300060F3041182F83016024A907108BD00BFAD
:101A4000305600206D750020F7B505460F4679F039
:101A5000DFFC044678B10221284679F09DFC064659
:101A600048B1154883F062F8C205C0F30723C0F3FC
:101A7000002403D53446204603B0F0BD9B07F9D5BA
:101A80000D4883F061F80D4B03F6B833D3ED007ABF
:101A9000F8EEE77A30EE670ADFED097AB0EEC00AB9
:101AA000B4EEE70AF1EE10FAE4DD064B3A46022105
:101AB000284679F079FCDEE71C62002030560020D1
:101AC0000000C842600B0D08F8B504460F4679F0D7
:101AD00051FF10210546204679F05EFC58B12046A2
:101AE000FFF71EFE064630B9044B3A461021204649
:101AF00079F05AFC35462846F8BD00BF740B0D0836
:101B000070B505460E4679F0EBFB044678B18021AE
:101B1000284679F041FC50B1074B93F8B53B43B1EF
:101B2000064B32468021284679F03EFC00242046B0
:101B300070BD0446FBE700BF30560020880B0D083F
:101B400038B50E4C0546D4F8140C81F0ABFC0128D6
:101B500011D0D4F8140C81F0A5FC022804D028463A
:101B6000BDE8384079F0BEBB04F5E4500DF054FEFA
:101B70000128F4D138BD0020FCE700BF305600201A
:101B8000F0B5114C85B0D4F830320093D4F834322B
:101B90000193D4F8383202936A46D4F83C32039366
:101BA00006460F467AF070FC39460546304679F015
:101BB00055FC94F83036284060F3C303C3F3C000EB
:101BC00084F8303605B0F0BD305600202DE9F843DA
:101BD00006462748DFF8A890DFF8A8800F466EF089
:101BE0005BFC0446D9F83C0603681B699847054628
:101BF00030B914F0060F03D1D9F87036022B09D191
:101C00003946304679F0FCFC054618B9002488F8BE
:101C100007400AE039463046FFF78EFD04460028AB
:101C2000F4D02DB9012388F807302046BDE8F883A9
:101C30000821304679F0B0FB0028F3D00D481FF0A2
:101C400043FC0028EED00C4B93F8E423B02101FBB9
:101C5000023203F50053B2F8EE21B3F9B6399A42D5
:101C6000E0DD064B3A460821304679F09DFBCDE792
:101C7000F84D002050270020302600209C0B0D0836
:101C8000305600206D7500202DE9F3410F460546C2
:101C900012F0E6FA804611F0C3FB044640B9504A00
:101CA0000121284679F088FD204602B0BDE8F08188
:101CB0004C4ED6F83C06036839469B699847044663
:101CC00058B9D6F83C0603681B6C9847464A034649
:101CD0000121284679F070FDE6E7AB68002BE3D0E0
:101CE0001021284679F058FB20B3D8ED937A98ED6F
:101CF000920A20EE270AB7F0EFFFDFED3C7AA6F557
:101D0000805320EE270AB3F98839DFED397A20EEC7
:101D1000270A07EE903AF8EEE77AB4EEE70AF1EE1A
:101D200010FA07DD334B01221021284679F03CFBE5
:101D30000024B9E74021284679F02EFB28B3012F73
:101D40001CD0232F1AD0042F18D0D6F838322A48A6
:101D5000B3F9083000EE103AB8EEC00A00F0BCFB50
:101D6000B5EEC00AF1EE10FA1DDD244B00930122FE
:101D7000234B4021284679F017FBD9E7D6F83C06DB
:101D80000368DB6B98470028DFD01E4B1B68D86ABE
:101D90000368DB6998470128014619D11A4A284689
:101DA00079F00AFDC4E7D6F83C0603685B699847FA
:101DB00030B1D6F83832B3F90830002BE5DDD4E77E
:101DC000D6F83C0603681B6898470B28DDD1F0E77E
:101DD0003946284602B0BDE8F0417AF0C3B800BFEA
:101DE000AC0B0D0830560020BD0B0D08E02E6542EF
:101DF0000000C842D10B0D08302600203F090D0815
:101E0000D90B0D08C0730020E50B0D0870B5054611
:101E10000E46FFF791FC084B0446D8713146284620
:101E2000FFF746FD31460028284608BF00247AF017
:101E300007FA204070BD00BF6D7500202DE9F0410C
:101E40004B4F3B78002B40F091804A4CD4F86056C1
:101E500095F8CB5001263E701DB13B702846BDE879
:101E6000F0817AF03FFC054630B9434A3870137868
:101E700043F001031370F1E757F076F9314656F05D
:101E80005FF9A4F5405006F021FC3C4B1E710B2677
:101E900046F0ECFE013E46F087FE16F0FF06F7D155
:101EA000374800F02FFF12F0DBF9D0F80022C4F819
:101EB000882690F87C32DA0746D411F045FD57F0B9
:101EC00053F93C2156F0E8FE04F5C96300221A607C
:101ED0002B48DFF8BC80002100F0A2FF294B1B68D3
:101EE000D86A036801211B689847D4F86006036824
:101EF0009B6A98470121D4F8600683F0D1FD57F022
:101F000033F90646D4F83C0603681B68984798F8EE
:101F100084280146304656F0EFFAA8F5005006F046
:101F2000C7FB53F02BF852F067FB00233B708AF09D
:101F3000EFFDB4F83236C4F8200C23F4087343F0F4
:101F40002003A4F8323689E79B07C1D431460C48F8
:101F500004F0B0FC0C4882F0F7FDDFED0C7A20EEC7
:101F6000270A04F5C96383ED000AB1E7002575E788
:101F700028260020305600208C7500206D7500202A
:101F800030260020C07300201C6200200AD7233CAA
:101F9000304600202DE9F043374DD5F8603693F8F0
:101FA000CB3087B0002B64D062B1012901D0232946
:101FB00008D195F93036002B04DB0024204607B009
:101FC000BDE8F0837AF046FC04460028F5D012F014
:101FD00047F9074618F024F98046384610F02AFFE2
:101FE000D8B198F92430022B17D100264FF0000900
:101FF000F1B203AA38460191CDF80C90CDF81090BB
:10200000CDF8149011F0C6FA019918B103AA404610
:1020100017F0DCFD0136032EEAD11848012106F045
:10202000C5FD1648012106F0F1FC0021D5F8600637
:1020300083F036FD12482DF04DFE57F095F8002143
:1020400056F07EF80F4B1B68D86A036800211B68A6
:10205000984795F83236D5F83C160B486FF3451380
:1020600085F832360B1A594259413C3088F07EFBD4
:10207000A4E70124A2E700BF30560020302600204C
:10208000B46D0020C0730020506F002010B5064CC6
:10209000D4F83C0603685B6A984718B1D4F86036F8
:1020A00093F8CB0010BD00BF3056002030B52DEDA9
:1020B000028B89B00C46B0EE408AFFF7E7FF054679
:1020C000002838D0B4EE488AF1EE10FA7CBFDFED7C
:1020D0001C8ADFED1C7A226863689FED1A0A68BFCC
:1020E000DFED198A029278BF68EE288A02A878BFCD
:1020F00068EEA78AD4ED027A0393F1EE677ACDED0C
:10210000047A2AF015FDB4EE488A00220123F1EE8C
:1021100010FACDE900238DED050ACDED060A9FEDFD
:102120000A0A0A488DED071AF0EE680A68BF1346DE
:1021300005A90BF0A1FB284609B0BDEC028B30BD10
:10214000E02E65420000C8420000000050710020EF
:1021500007B50191FFF79AFF30B10199044803B028
:102160005DF804EB00F0FCBA03B05DF804FB00BFBF
:102170003026002001486EF01BBB00BFF84D002048
:1021800008B500F5405090F83036C3F340128A424B
:102190000BD061F3451380F8303631B156F0E4FFCF
:1021A000BDE808400F2156F077BD08BD70B500F5B9
:1021B00040560546D6F870368B420C4612D001299F
:1021C00011D0022916D059B956F0CEFF1B2156F076
:1021D00063FD0D4A05F55050062114305AF030F9D0
:1021E000C6F8704670BD56F0BFFF1A2156F054FD78
:1021F000064AEFE7012100F013FE56F0B5FF1D215E
:1022000056F04AFD024AE5E7500C0D08650C0D0832
:10221000600C0D0810B500F540520C4692F855368A
:1022200003F00101A14209D064F3000382F855369E
:10223000DB0704D405F05EFE024B9C7210BD06F075
:1022400007F8F9E76D75002000F5405090F8553615
:1022500061F3410380F85536014B1973704700BF95
:102260006D75002010B5044663F032FF202164F044
:1022700091FE04F54053003893F8322618BF012030
:1022800060F3820283F8322610BD000010B50446C8
:1022900004F5405452F072FED4F86026436FD360C8
